{"abi":[{"type":"constructor","inputs":[],"stateMutability":"nonpayable"},{"type":"function","name":"GOLD_BACKING_RATIO","inputs":[],"outputs":[{"name":"","type":"uint256","internalType":"uint256"}],"stateMutability":"view"},{"type":"function","name":"allowance","inputs":[{"name":"owner","type":"address","internalType":"address"},{"name":"spender","type":"address","internalType":"address"}],"outputs":[{"name":"","type":"uint256","internalType":"uint256"}],"stateMutability":"view"},{"type":"function","name":"approve","inputs":[{"name":"spender","type":"address","internalType":"address"},{"name":"value","type":"uint256","internalType":"uint256"}],"outputs":[{"name":"","type":"bool","internalType":"bool"}],"stateMutability":"nonpayable"},{"type":"function","name":"authorized","inputs":[{"name":"","type":"address","internalType":"address"}],"outputs":[{"name":"","type":"bool","internalType":"bool"}],"stateMutability":"view"},{"type":"function","name":"backingRatio","inputs":[],"outputs":[{"name":"","type":"uint256","internalType":"uint256"}],"stateMutability":"view"},{"type":"function","name":"balanceOf","inputs":[{"name":"account","type":"address","internalType":"address"}],"outputs":[{"name":"","type":"uint256","internalType":"uint256"}],"stateMutability":"view"},{"type":"function","name":"burn","inputs":[{"name":"amount","type":"uint256","internalType":"uint256"}],"outputs":[],"stateMutability":"nonpayable"},{"type":"function","name":"burnFrom","inputs":[{"name":"from","type":"address","internalType":"address"},{"name":"amount","type":"uint256","internalType":"uint256"}],"outputs":[],"stateMutability":"nonpayable"},{"type":"function","name":"decimals","inputs":[],"outputs":[{"name":"","type":"uint8","internalType":"uint8"}],"stateMutability":"view"},{"type":"function","name":"depositGold","inputs":[{"name":"grams","type":"uint256","internalType":"uint256"}],"outputs":[],"stateMutability":"nonpayable"},{"type":"function","name":"goldReserves","inputs":[],"outputs":[{"name":"","type":"uint256","internalType":"uint256"}],"stateMutability":"view"},{"type":"function","name":"isFullyBacked","inputs":[],"outputs":[{"name":"","type":"bool","internalType":"bool"}],"stateMutability":"view"},{"type":"function","name":"mint","inputs":[{"name":"to","type":"address","internalType":"address"},{"name":"amount","type":"uint256","internalType":"uint256"}],"outputs":[],"stateMutability":"nonpayable"},{"type":"function","name":"name","inputs":[],"outputs":[{"name":"","type":"string","internalType":"string"}],"stateMutability":"view"},{"type":"function","name":"owner","inputs":[],"outputs":[{"name":"","type":"address","internalType":"address"}],"stateMutability":"view"},{"type":"function","name":"renounceOwnership","inputs":[],"outputs":[],"stateMutability":"nonpayable"},{"type":"function","name":"setAuthorized","inputs":[{"name":"account","type":"address","internalType":"address"},{"name":"status","type":"bool","internalType":"bool"}],"outputs":[],"stateMutability":"nonpayable"},{"type":"function","name":"symbol","inputs":[],"outputs":[{"name":"","type":"string","internalType":"string"}],"stateMutability":"view"},{"type":"function","name":"totalSupply","inputs":[],"outputs":[{"name":"","type":"uint256","internalType":"uint256"}],"stateMutability":"view"},{"type":"function","name":"transfer","inputs":[{"name":"to","type":"address","internalType":"address"},{"name":"value","type":"uint256","internalType":"uint256"}],"outputs":[{"name":"","type":"bool","internalType":"bool"}],"stateMutability":"nonpayable"},{"type":"function","name":"transferFrom","inputs":[{"name":"from","type":"address","internalType":"address"},{"name":"to","type":"address","internalType":"address"},{"name":"value","type":"uint256","internalType":"uint256"}],"outputs":[{"name":"","type":"bool","internalType":"bool"}],"stateMutability":"nonpayable"},{"type":"function","name":"transferOwnership","inputs":[{"name":"newOwner","type":"address","internalType":"address"}],"outputs":[],"stateMutability":"nonpayable"},{"type":"function","name":"withdrawGold","inputs":[{"name":"grams","type":"uint256","internalType":"uint256"}],"outputs":[],"stateMutability":"nonpayable"},{"type":"event","name":"Approval","inputs":[{"name":"owner","type":"address","indexed":true,"internalType":"address"},{"name":"spender","type":"address","indexed":true,"internalType":"address"},{"name":"value","type":"uint256","indexed":false,"internalType":"uint256"}],"anonymous":false},{"type":"event","name":"GoldDeposited","inputs":[{"name":"amount","type":"uint256","indexed":false,"internalType":"uint256"}],"anonymous":false},{"type":"event","name":"GoldWithdrawn","inputs":[{"name":"amount","type":"uint256","indexed":false,"internalType":"uint256"}],"anonymous":false},{"type":"event","name":"OwnershipTransferred","inputs":[{"name":"previousOwner","type":"address","indexed":true,"internalType":"address"},{"name":"newOwner","type":"address","indexed":true,"internalType":"address"}],"anonymous":false},{"type":"event","name":"TokensBurned","inputs":[{"name":"from","type":"address","indexed":true,"internalType":"address"},{"name":"amount","type":"uint256","indexed":false,"internalType":"uint256"}],"anonymous":false},{"type":"event","name":"TokensMinted","inputs":[{"name":"to","type":"address","indexed":true,"internalType":"address"},{"name":"amount","type":"uint256","indexed":false,"internalType":"uint256"}],"anonymous":false},{"type":"event","name":"Transfer","inputs":[{"name":"from","type":"address","indexed":true,"internalType":"address"},{"name":"to","type":"address","indexed":true,"internalType":"address"},{"name":"value","type":"uint256","indexed":false,"internalType":"uint256"}],"anonymous":false},{"type":"error","name":"ERC20InsufficientAllowance","inputs":[{"name":"spender","type":"address","internalType":"address"},{"name":"allowance","type":"uint256","internalType":"uint256"},{"name":"needed","type":"uint256","internalType":"uint256"}]},{"type":"error","name":"ERC20InsufficientBalance","inputs":[{"name":"sender","type":"address","internalType":"address"},{"name":"balance","type":"uint256","internalType":"uint256"},{"name":"needed","type":"uint256","internalType":"uint256"}]},{"type":"error","name":"ERC20InvalidApprover","inputs":[{"name":"approver","type":"address","internalType":"address"}]},{"type":"error","name":"ERC20InvalidReceiver","inputs":[{"name":"receiver","type":"address","internalType":"address"}]},{"type":"error","name":"ERC20InvalidSender","inputs":[{"name":"sender","type":"address","internalType":"address"}]},{"type":"error","name":"ERC20InvalidSpender","inputs":[{"name":"spender","type":"address","internalType":"address"}]},{"type":"error","name":"OwnableInvalidOwner","inputs":[{"name":"owner","type":"address","internalType":"address"}]},{"type":"error","name":"OwnableUnauthorizedAccount","inputs":[{"name":"account","type":"address","internalType":"address"}]}],"bytecode":{"object":"0x608060405234801562000010575f80fd5b50336040518060400160405280600d81526020017f46544820436f726520476f6c64000000000000000000000000000000000000008152506040518060400160405280600481526020017f465448430000000000000000000000000000000000000000000000000000000081525081600390816200008f9190620004ab565b508060049081620000a19190620004ab565b5050505f73ffffffffffffffffffffffffffffffffffffffff168173ffffffffffffffffffffffffffffffffffffffff160362000117575f6040517f1e4fbdf70000000000000000000000000000000000000000000000000000000081526004016200010e9190620005d2565b60405180910390fd5b62000128816200018460201b60201c565b50600160075f3373ffffffffffffffffffffffffffffffffffffffff1673ffffffffffffffffffffffffffffffffffffffff1681526020019081526020015f205f6101000a81548160ff021916908315150217905550620005ed565b5f60055f9054906101000a900473ffffffffffffffffffffffffffffffffffffffff1690508160055f6101000a81548173ffffffffffffffffffffffffffffffffffffffff021916908373ffffffffffffffffffffffffffffffffffffffff1602179055508173ffffffffffffffffffffffffffffffffffffffff168173ffffffffffffffffffffffffffffffffffffffff167f8be0079c531659141344cd1fd0a4f28419497f9722a3daafe3b4186f6b6457e060405160405180910390a35050565b5f81519050919050565b7f4e487b71000000000000000000000000000000000000000000000000000000005f52604160045260245ffd5b7f4e487b71000000000000000000000000000000000000000000000000000000005f52602260045260245ffd5b5f6002820490506001821680620002c357607f821691505b602082108103620002d957620002d86200027e565b5b50919050565b5f819050815f5260205f209050919050565b5f6020601f8301049050919050565b5f82821b905092915050565b5f600883026200033d7fffffffffffffffffffffffffffffffffffffffffffffffffffffffffffffffff8262000300565b62000349868362000300565b95508019841693508086168417925050509392505050565b5f819050919050565b5f819050919050565b5f620003936200038d620003878462000361565b6200036a565b62000361565b9050919050565b5f819050919050565b620003ae8362000373565b620003c6620003bd826200039a565b8484546200030c565b825550505050565b5f90565b620003dc620003ce565b620003e9818484620003a3565b505050565b5b818110156200041057620004045f82620003d2565b600181019050620003ef565b5050565b601f8211156200045f576200042981620002df565b6200043484620002f1565b8101602085101562000444578190505b6200045c6200045385620002f1565b830182620003ee565b50505b505050565b5f82821c905092915050565b5f620004815f198460080262000464565b1980831691505092915050565b5f6200049b838362000470565b9150826002028217905092915050565b620004b68262000247565b67ffffffffffffffff811115620004d257620004d162000251565b5b620004de8254620002ab565b620004eb82828562000414565b5f60209050601f83116001811462000521575f84156200050c578287015190505b6200051885826200048e565b86555062000587565b601f1984166200053186620002df565b5f5b828110156200055a5784890151825560018201915060208501945060208101905062000533565b868310156200057a578489015162000576601f89168262000470565b8355505b6001600288020188555050505b505050505050565b5f73ffffffffffffffffffffffffffffffffffffffff82169050919050565b5f620005ba826200058f565b9050919050565b620005cc81620005ae565b82525050565b5f602082019050620005e75f830184620005c1565b92915050565b611d1e80620005fb5f395ff3fe608060405234801561000f575f80fd5b506004361061014b575f3560e01c8063711bf9b2116100c1578063a9059cbb1161007a578063a9059cbb14610363578063aa78471a14610393578063b9181611146103b1578063c7c463fc146103e1578063dd62ed3e146103ff578063f2fde38b1461042f5761014b565b8063711bf9b2146102c9578063715018a6146102e557806379cc6790146102ef5780638da5cb5b1461030b57806395d89b41146103295780639835e092146103475761014b565b806340c10f191161011357806340c10f191461020957806342966c6814610225578063465a7007146102415780634e151e141461025d57806369fe17d61461027b57806370a08231146102995761014b565b806306fdde031461014f578063095ea7b31461016d57806318160ddd1461019d57806323b872dd146101bb578063313ce567146101eb575b5f80fd5b61015761044b565b6040516101649190611693565b60405180910390f35b61018760048036038101906101829190611744565b6104db565b604051610194919061179c565b60405180910390f35b6101a56104fd565b6040516101b291906117c4565b60405180910390f35b6101d560048036038101906101d091906117dd565b610506565b6040516101e2919061179c565b60405180910390f35b6101f3610534565b6040516102009190611848565b60405180910390f35b610223600480360381019061021e9190611744565b61053c565b005b61023f600480360381019061023a9190611861565b6106b5565b005b61025b60048036038101906102569190611861565b610710565b005b610265610828565b60405161027291906117c4565b60405180910390f35b61028361082e565b604051610290919061179c565b60405180910390f35b6102b360048036038101906102ae919061188c565b610841565b6040516102c091906117c4565b60405180910390f35b6102e360048036038101906102de91906118e1565b610886565b005b6102ed6108e6565b005b61030960048036038101906103049190611744565b6108f9565b005b610313610a1b565b604051610320919061192e565b60405180910390f35b610331610a43565b60405161033e9190611693565b60405180910390f35b610361600480360381019061035c9190611861565b610ad3565b005b61037d60048036038101906103789190611744565b610c87565b60405161038a919061179c565b60405180910390f35b61039b610ca9565b6040516103a891906117c4565b60405180910390f35b6103cb60048036038101906103c6919061188c565b610cb5565b6040516103d8919061179c565b60405180910390f35b6103e9610cd2565b6040516103f691906117c4565b60405180910390f35b61041960048036038101906104149190611947565b610d37565b60405161042691906117c4565b60405180910390f35b6104496004803603810190610444919061188c565b610db9565b005b60606003805461045a906119b2565b80601f0160208091040260200160405190810160405280929190818152602001828054610486906119b2565b80156104d15780601f106104a8576101008083540402835291602001916104d1565b820191905f5260205f20905b8154815290600101906020018083116104b457829003601f168201915b5050505050905090565b5f806104e5610e3d565b90506104f2818585610e44565b600191505092915050565b5f600254905090565b5f80610510610e3d565b905061051d858285610e56565b610528858585610ee9565b60019150509392505050565b5f6012905090565b60075f3373ffffffffffffffffffffffffffffffffffffffff1673ffffffffffffffffffffffffffffffffffffffff1681526020019081526020015f205f9054906101000a900460ff16806105c35750610594610a1b565b73ffffffffffffffffffffffffffffffffffffffff163373ffffffffffffffffffffffffffffffffffffffff16145b610602576040517f08c379a00000000000000000000000000000000000000000000000000000000081526004016105f990611a2c565b60405180910390fd5b8061060b6104fd565b6106159190611a77565b6006541015610659576040517f08c379a000000000000000000000000000000000000000000000000000000000815260040161065090611af4565b60405180910390fd5b6106638282610fd9565b8173ffffffffffffffffffffffffffffffffffffffff167f3f2c9d57c068687834f0de942a9babb9e5acab57d516d3480a3c16ee165a4273826040516106a991906117c4565b60405180910390a25050565b6106bf3382611058565b3373ffffffffffffffffffffffffffffffffffffffff167ffd38818f5291bf0bb3a2a48aadc06ba8757865d1dabd804585338aab3009dcb68260405161070591906117c4565b60405180910390a250565b60075f3373ffffffffffffffffffffffffffffffffffffffff1673ffffffffffffffffffffffffffffffffffffffff1681526020019081526020015f205f9054906101000a900460ff16806107975750610768610a1b565b73ffffffffffffffffffffffffffffffffffffffff163373ffffffffffffffffffffffffffffffffffffffff16145b6107d6576040517f08c379a00000000000000000000000000000000000000000000000000000000081526004016107cd90611a2c565b60405180910390fd5b8060065f8282546107e79190611a77565b925050819055507f45106f47884a0a9f74d35f2056b611c9066567715fda20797f93a6889a127b6d8160405161081d91906117c4565b60405180910390a150565b60065481565b5f6108376104fd565b6006541015905090565b5f805f8373ffffffffffffffffffffffffffffffffffffffff1673ffffffffffffffffffffffffffffffffffffffff1681526020019081526020015f20549050919050565b61088e6110d7565b8060075f8473ffffffffffffffffffffffffffffffffffffffff1673ffffffffffffffffffffffffffffffffffffffff1681526020019081526020015f205f6101000a81548160ff0219169083151502179055505050565b6108ee6110d7565b6108f75f61115e565b565b60075f3373ffffffffffffffffffffffffffffffffffffffff1673ffffffffffffffffffffffffffffffffffffffff1681526020019081526020015f205f9054906101000a900460ff16806109805750610951610a1b565b73ffffffffffffffffffffffffffffffffffffffff163373ffffffffffffffffffffffffffffffffffffffff16145b6109bf576040517f08c379a00000000000000000000000000000000000000000000000000000000081526004016109b690611a2c565b60405180910390fd5b6109c98282611058565b8173ffffffffffffffffffffffffffffffffffffffff167ffd38818f5291bf0bb3a2a48aadc06ba8757865d1dabd804585338aab3009dcb682604051610a0f91906117c4565b60405180910390a25050565b5f60055f9054906101000a900473ffffffffffffffffffffffffffffffffffffffff16905090565b606060048054610a52906119b2565b80601f0160208091040260200160405190810160405280929190818152602001828054610a7e906119b2565b8015610ac95780601f10610aa057610100808354040283529160200191610ac9565b820191905f5260205f20905b815481529060010190602001808311610aac57829003601f168201915b5050505050905090565b60075f3373ffffffffffffffffffffffffffffffffffffffff1673ffffffffffffffffffffffffffffffffffffffff1681526020019081526020015f205f9054906101000a900460ff1680610b5a5750610b2b610a1b565b73ffffffffffffffffffffffffffffffffffffffff163373ffffffffffffffffffffffffffffffffffffffff16145b610b99576040517f08c379a0000000000000000000000000000000000000000000000000000000008152600401610b9090611a2c565b60405180910390fd5b806006541015610bde576040517f08c379a0000000000000000000000000000000000000000000000000000000008152600401610bd590611b5c565b60405180910390fd5b610be66104fd565b81600654610bf49190611b7a565b1015610c35576040517f08c379a0000000000000000000000000000000000000000000000000000000008152600401610c2c90611bf7565b60405180910390fd5b8060065f828254610c469190611b7a565b925050819055507f481bb64862b0105ac4ba42e3c748bf35064b9e474bbd21cb902f202c81ebaa2a81604051610c7c91906117c4565b60405180910390a150565b5f80610c91610e3d565b9050610c9e818585610ee9565b600191505092915050565b670de0b6b3a764000081565b6007602052805f5260405f205f915054906101000a900460ff1681565b5f80610cdc6104fd565b03610d09577fffffffffffffffffffffffffffffffffffffffffffffffffffffffffffffffff9050610d34565b610d116104fd565b670de0b6b3a7640000600654610d279190611c15565b610d319190611c83565b90505b90565b5f60015f8473ffffffffffffffffffffffffffffffffffffffff1673ffffffffffffffffffffffffffffffffffffffff1681526020019081526020015f205f8373ffffffffffffffffffffffffffffffffffffffff1673ffffffffffffffffffffffffffffffffffffffff1681526020019081526020015f2054905092915050565b610dc16110d7565b5f73ffffffffffffffffffffffffffffffffffffffff168173ffffffffffffffffffffffffffffffffffffffff1603610e31575f6040517f1e4fbdf7000000000000000000000000000000000000000000000000000000008152600401610e28919061192e565b60405180910390fd5b610e3a8161115e565b50565b5f33905090565b610e518383836001611221565b505050565b5f610e618484610d37565b90507fffffffffffffffffffffffffffffffffffffffffffffffffffffffffffffffff811015610ee35781811015610ed4578281836040517ffb8f41b2000000000000000000000000000000000000000000000000000000008152600401610ecb93929190611cb3565b60405180910390fd5b610ee284848484035f611221565b5b50505050565b5f73ffffffffffffffffffffffffffffffffffffffff168373ffffffffffffffffffffffffffffffffffffffff1603610f59575f6040517f96c6fd1e000000000000000000000000000000000000000000000000000000008152600401610f50919061192e565b60405180910390fd5b5f73ffffffffffffffffffffffffffffffffffffffff168273ffffffffffffffffffffffffffffffffffffffff1603610fc9575f6040517fec442f05000000000000000000000000000000000000000000000000000000008152600401610fc0919061192e565b60405180910390fd5b610fd48383836113f0565b505050565b5f73ffffffffffffffffffffffffffffffffffffffff168273ffffffffffffffffffffffffffffffffffffffff1603611049575f6040517fec442f05000000000000000000000000000000000000000000000000000000008152600401611040919061192e565b60405180910390fd5b6110545f83836113f0565b5050565b5f73ffffffffffffffffffffffffffffffffffffffff168273ffffffffffffffffffffffffffffffffffffffff16036110c8575f6040517f96c6fd1e0000000000000000000000000000000000000000000000000000000081526004016110bf919061192e565b60405180910390fd5b6110d3825f836113f0565b5050565b6110df610e3d565b73ffffffffffffffffffffffffffffffffffffffff166110fd610a1b565b73ffffffffffffffffffffffffffffffffffffffff161461115c57611120610e3d565b6040517f118cdaa7000000000000000000000000000000000000000000000000000000008152600401611153919061192e565b60405180910390fd5b565b5f60055f9054906101000a900473ffffffffffffffffffffffffffffffffffffffff1690508160055f6101000a81548173ffffffffffffffffffffffffffffffffffffffff021916908373ffffffffffffffffffffffffffffffffffffffff1602179055508173ffffffffffffffffffffffffffffffffffffffff168173ffffffffffffffffffffffffffffffffffffffff167f8be0079c531659141344cd1fd0a4f28419497f9722a3daafe3b4186f6b6457e060405160405180910390a35050565b5f73ffffffffffffffffffffffffffffffffffffffff168473ffffffffffffffffffffffffffffffffffffffff1603611291575f6040517fe602df05000000000000000000000000000000000000000000000000000000008152600401611288919061192e565b60405180910390fd5b5f73ffffffffffffffffffffffffffffffffffffffff168373ffffffffffffffffffffffffffffffffffffffff1603611301575f6040517f94280d620000000000000000000000000000000000000000000000000000000081526004016112f8919061192e565b60405180910390fd5b8160015f8673ffffffffffffffffffffffffffffffffffffffff1673ffffffffffffffffffffffffffffffffffffffff1681526020019081526020015f205f8573ffffffffffffffffffffffffffffffffffffffff1673ffffffffffffffffffffffffffffffffffffffff1681526020019081526020015f208190555080156113ea578273ffffffffffffffffffffffffffffffffffffffff168473ffffffffffffffffffffffffffffffffffffffff167f8c5be1e5ebec7d5bd14f71427d1e84f3dd0314c0f7b2291e5b200ac8c7c3b925846040516113e191906117c4565b60405180910390a35b50505050565b5f73ffffffffffffffffffffffffffffffffffffffff168373ffffffffffffffffffffffffffffffffffffffff1603611440578060025f8282546114349190611a77565b9250508190555061150e565b5f805f8573ffffffffffffffffffffffffffffffffffffffff1673ffffffffffffffffffffffffffffffffffffffff1681526020019081526020015f20549050818110156114c9578381836040517fe450d38c0000000000000000000000000000000000000000000000000000000081526004016114c093929190611cb3565b60405180910390fd5b8181035f808673ffffffffffffffffffffffffffffffffffffffff1673ffffffffffffffffffffffffffffffffffffffff1681526020019081526020015f2081905550505b5f73ffffffffffffffffffffffffffffffffffffffff168273ffffffffffffffffffffffffffffffffffffffff1603611555578060025f828254039250508190555061159f565b805f808473ffffffffffffffffffffffffffffffffffffffff1673ffffffffffffffffffffffffffffffffffffffff1681526020019081526020015f205f82825401925050819055505b8173ffffffffffffffffffffffffffffffffffffffff168373ffffffffffffffffffffffffffffffffffffffff167fddf252ad1be2c89b69c2b068fc378daa952ba7f163c4a11628f55a4df523b3ef836040516115fc91906117c4565b60405180910390a3505050565b5f81519050919050565b5f82825260208201905092915050565b5f5b83811015611640578082015181840152602081019050611625565b5f8484015250505050565b5f601f19601f8301169050919050565b5f61166582611609565b61166f8185611613565b935061167f818560208601611623565b6116888161164b565b840191505092915050565b5f6020820190508181035f8301526116ab818461165b565b905092915050565b5f80fd5b5f73ffffffffffffffffffffffffffffffffffffffff82169050919050565b5f6116e0826116b7565b9050919050565b6116f0816116d6565b81146116fa575f80fd5b50565b5f8135905061170b816116e7565b92915050565b5f819050919050565b61172381611711565b811461172d575f80fd5b50565b5f8135905061173e8161171a565b92915050565b5f806040838503121561175a576117596116b3565b5b5f611767858286016116fd565b925050602061177885828601611730565b9150509250929050565b5f8115159050919050565b61179681611782565b82525050565b5f6020820190506117af5f83018461178d565b92915050565b6117be81611711565b82525050565b5f6020820190506117d75f8301846117b5565b92915050565b5f805f606084860312156117f4576117f36116b3565b5b5f611801868287016116fd565b9350506020611812868287016116fd565b925050604061182386828701611730565b9150509250925092565b5f60ff82169050919050565b6118428161182d565b82525050565b5f60208201905061185b5f830184611839565b92915050565b5f60208284031215611876576118756116b3565b5b5f61188384828501611730565b91505092915050565b5f602082840312156118a1576118a06116b3565b5b5f6118ae848285016116fd565b91505092915050565b6118c081611782565b81146118ca575f80fd5b50565b5f813590506118db816118b7565b92915050565b5f80604083850312156118f7576118f66116b3565b5b5f611904858286016116fd565b9250506020611915858286016118cd565b9150509250929050565b611928816116d6565b82525050565b5f6020820190506119415f83018461191f565b92915050565b5f806040838503121561195d5761195c6116b3565b5b5f61196a858286016116fd565b925050602061197b858286016116fd565b9150509250929050565b7f4e487b71000000000000000000000000000000000000000000000000000000005f52602260045260245ffd5b5f60028204905060018216806119c957607f821691505b6020821081036119dc576119db611985565b5b50919050565b7f4e6f7420617574686f72697a65640000000000000000000000000000000000005f82015250565b5f611a16600e83611613565b9150611a21826119e2565b602082019050919050565b5f6020820190508181035f830152611a4381611a0a565b9050919050565b7f4e487b71000000000000000000000000000000000000000000000000000000005f52601160045260245ffd5b5f611a8182611711565b9150611a8c83611711565b9250828201905080821115611aa457611aa3611a4a565b5b92915050565b7f496e73756666696369656e7420676f6c64206261636b696e67000000000000005f82015250565b5f611ade601983611613565b9150611ae982611aaa565b602082019050919050565b5f6020820190508181035f830152611b0b81611ad2565b9050919050565b7f496e73756666696369656e7420676f6c642072657365727665730000000000005f82015250565b5f611b46601a83611613565b9150611b5182611b12565b602082019050919050565b5f6020820190508181035f830152611b7381611b3a565b9050919050565b5f611b8482611711565b9150611b8f83611711565b9250828203905081811115611ba757611ba6611a4a565b5b92915050565b7f576f756c6420627265616b206261636b696e6720726174696f000000000000005f82015250565b5f611be1601983611613565b9150611bec82611bad565b602082019050919050565b5f6020820190508181035f830152611c0e81611bd5565b9050919050565b5f611c1f82611711565b9150611c2a83611711565b9250828202611c3881611711565b91508282048414831517611c4f57611c4e611a4a565b5b5092915050565b7f4e487b71000000000000000000000000000000000000000000000000000000005f52601260045260245ffd5b5f611c8d82611711565b9150611c9883611711565b925082611ca857611ca7611c56565b5b828204905092915050565b5f606082019050611cc65f83018661191f565b611cd360208301856117b5565b611ce060408301846117b5565b94935050505056fea2646970667358221220e0875eda2029ad3eff1ced41bc67de3e0e92ca1144d2ad3023cc26044cb7d9c764736f6c63430008180033","linkReferences":{}},"methodIdentifiers":{"GOLD_BACKING_RATIO()":"aa78471a","allowance(address,address)":"dd62ed3e","approve(address,uint256)":"095ea7b3","authorized(address)":"b9181611","backingRatio()":"c7c463fc","balanceOf(address)":"70a08231","burn(uint256)":"42966c68","burnFrom(address,uint256)":"79cc6790","decimals()":"313ce567","depositGold(uint256)":"465a7007","goldReserves()":"4e151e14","isFullyBacked()":"69fe17d6","mint(address,uint256)":"40c10f19","name()":"06fdde03","owner()":"8da5cb5b","renounceOwnership()":"715018a6","setAuthorized(address,bool)":"711bf9b2","symbol()":"95d89b41","totalSupply()":"18160ddd","transfer(address,uint256)":"a9059cbb","transferFrom(address,address,uint256)":"23b872dd","transferOwnership(address)":"f2fde38b","withdrawGold(uint256)":"9835e092"},"id":28}